:03000000020917DB
:0C091700787FE4F6D8FD75810A02080024
:10086E004D6F76696E6720666F72776172640053A2
:10087E00746F7070696E67004D6F76696E67206C6D
:10088E00656674004D6F76696E672072696768746D
:01089E000059
:0808C800C2A3D2A47F057E004B
:1008D000E4FDFCC3ED9FEC9E5015E4FBFA0BBB005E
:0F08E000010ABA01F8BBF4F50DBD00010C80E46C
:0108EF0022E6
:10089F008B088A09890AAB08AA09A90A1208F0600D
:1008AF0017050AE50A7002050914F91208F0FF335B
:0908BF0095E0FE12092380DE22FF
:040909007F807E006D
:0A090D008F90C2A21208C8C2A422F3
:0A0923008F90D2A21208C8C2A422CD
:09092D00D282C283D284C2852269
:09093600C282D283C284D2852260
:09093F00D282C283C284C2852267
:09094800C282C283D284C285225E
:09095100C282C283C284C2852265
:100800007F387E0012090D7F107E0012090D7F0CCB
:100810007E0012090DD2A0D2A120A01220A10F1299
:1008200009097BFF7A08796E12089F02092D30A012
:100830001230A10F1209097BFF7A08797D12089FF7
:1008400002095120A01230A10F1209097BFF7A087A
:10085000798612089F02093F30A01220A10F1209C9
:0E086000097BFF7A08799212089F120948223C
:1008F000BB010689828A83E0225002E722BBFE0206
:09090000E32289828A83E4932238
:00000001FF
